S01B000062636172653030315F6C6162355F70617274312E7372656371
S113000045C0000060C000005EC000005CC000008D
S11300105AC0000058C0000056C0000054C0000080
S113002052C0000050C000004EC000004CC0000090
S11300304AC000006DC0000046C0000044C000007B
S113004042C0000040C000003EC000003CC00000B0
S11300503AC0000038C0000036C0000034C00000C0
S113006032C0000030C000002EC000002CC00000D0
S11300702AC0000028C0000026C0000024C00000E0
S113008022C0000020C000001EC0000011241FBEBA
S1130090CFEFD0E4DEBFCDBF11E0A0E0B1E0EAE0F5
S11300A0F2E000E00BBF02C007900D92A430B1074C
S11300B0D9F721E0A4E0B1E001C01D92AA30B20753
S11300C0E1F77FD0A0C09CCF8BE0809381008DE7C7
S11300D090E0909389008093880082E080936F0081
S11300E0109285001092840080910001909101018A
S11300F0A0910201B0910301809305019093060140
S1130100A0930701B09308018FB780688FBF08954B
S11301101F920F920FB60F9211248F939F93AF9358
S1130120BF938091050190910601A0910701B091C0
S113013008010197A109B109809305019093060173
S1130140A0930701B0930801892B8A2B8B2B99F478
S113015081E0809309018091000190910101A091B7
S11301600201B09103018093050190930601A093CD
S11301700701B0930801BF91AF919F918F910F90A8
S11301800FBE0F901F90189580910401811104C037
S113019081E08093040111C0813021F482E08093D6
S11301A004010BC0823021F484E08093040105C073
S11301B0843019F481E0809304018091040185B9AD
S11301C008958FEF84B915B888EE93E0A0E0B0E00D
S11301D08093000190930101A0930201B093030165
S11301E08093050190930601A0930701B093080141
S11301F06BDF10920401809109018823E1F31092CE
S10D02000901C2DFF8CFF894FFCF24
S107020A01000000EB
S9030000FC
