S01C000062636172653030315F6C616231305F70617274352E7372656340
S113000045C0000060C000005EC000005CC000008D
S11300105AC0000058C0000056C0000054C0000080
S113002052C0000050C000004EC000004CC0000090
S11300304AC0000024C3000046C0000044C00000C1
S113004042C0000040C000003EC000003CC00000B0
S11300503AC0000038C0000036C0000034C00000C0
S113006032C0000030C000002EC000002CC00000D0
S11300702AC0000028C0000026C0000024C00000E0
S113008022C0000020C000001EC0000011241FBEBA
S1130090CFEFD0E4DEBFCDBF11E0A0E0B1E0EEE1F0
S11300A0F7E000E00BBF02C007900D92AC31B1073E
S11300B0D9F721E0ACE1B1E001C01D92AA34B20746
S11300C0E1F781D22AC39CCF8FEE88B90000309B20
S11300D044C086B1809581FD42C086B1809582FD81
S11300E040C086B1809583FD3EC08FED88B9000085
S11300F0309B3BC086B1809581FD39C086B1809527
S113010082FD37C086B1809583FD35C08FEB88B9F9
S11301100000309B32C086B1809581FD30C086B12D
S1130120809582FD2EC086B1809583FD2CC08FE71B
S113013088B9000096B19095892F817090FD25C0F3
S113014096B1909591FD23C096B1909592FD21C0F2
S113015096B1909593FD1FC0089581E3089584E3BB
S1130160089587E308958AE2089582E3089585E374
S1130170089588E3089580E3089583E3089586E36A
S1130180089589E3089583E2089581E4089582E45B
S1130190089583E4089584E40895181619065CF01C
S11301A00895000021503109E1F74F5F5F4F481770
S11301B0590729F4089540E050E077E063E0272FE1
S11301C0362FEFCF5E9882B95F9A00005F9882E085
S11301D090E0E3CF089581E0F5CF0895813118F4DC
S11301E08158F0CF08958155EDCF089584E690E0CD
S11301F0D4DF88E3E7DF86E0E5DF8FE0E3DF81E05B
S1130200E1DF8AE090E0C9CF08955E9A82B95F9AEF
S113021000005F9881E090E0C0CF08950F931F9392
S1130220CF93DF93182FEB01D6DF8881882351F019
S113023001E0010F812FD2DF8991E7DF102F888140
S11302408111F6CFDF91CF911F910F910895809185
S11302501701C4DF80E2D9DF80911601BFDF80E29D
S1130260D4DF80911701813021F480E1809317015C
S113027003C081508093170180911601813121F4CC
S113028080E28093160103C081508093160180910F
S11302901701A4DF83E2B9DF809116019FDF83E2B7
S11302A0B4DF809118019ADF80E4AFDF80E096CF5D
S11302B008950F931F93CF9381E0909119019111A9
S11302C080E080931901882369F004E011E0C5E01F
S11302D08C2F84DFF80181918F0197DFCF5FCD30C0
S11302E0B9F70AC06AE171E081E098DF80911801F2
S11302F075DF80E48ADFABDFCF911F910F91089502
S113030081309105F9F01CF4009741F03DC0823032
S1130310910561F18330910591F136C020E120937C
S1130320170128E12093160120911901222329F0B5
S113033080912201882379F127C020912201222370
S113034031F1089580911901882349F080912201A7
S113035081111AC010921C0182E090E008958091EE
S113036022018823A1F080E090E0089520911C01EF
S113037031E0320F30931C01263080F4089520912F
S1130380190121110DC003C080E090E008955FDFE2
S113039081E090E0089583E090E0089583E090E0A8
S11303A008956BE171E081E039DF81E08093180109
S11303B015DF80E42ADF80E011DF80E180931701FC
S11303C088E1809316011092220110921901089578
S11303D08130910561F481E08093180181E1FEDEB2
S11303E080E213DF81E0FADE80E40FDF0DC0419785
S11303F059F481E18093180181E0F0DE80E205DFA9
S113040081E1ECDE80E401DF80E0E8CE0895CF9363
S1130410DF93EC0159DEC230D10518F0C130D105AB
S113042099F5843391F08733D1F0813311F58091BC
S11304302201811104C03DDFC1E0D0E025C081303C
S1130440D9F4AFDFC1E0D0E01FC080912201811157
S113045016C081E090E0BCDFC1E0D0E015C080911F
S1130460220181110FC081E190E0B2DFC1E0D0E050
S11304700BC0C1E0D0E008C0C1E0D0E005C0C1E0DD
S1130480D0E002C0C1E0D0E0CE01DF91CF91089569
S11304900F931F93CF930CE011E0C3E08C2F9EDEEB
S11304A0F80181918F01B1DECF5FCD30B9F7CF91E3
S11304B01F910F9108958130910541F0823091058B
S11304C0B1F00097D1F481E090E0089520911801F3
S11304D030911701231721F03091160123130DC019
S11304E0D7DF81E08093220182E090E0089520919B
S11304F02201213011F081E090E00895EF92FF9203
S11305000F931F93CF93DF93C3E2D1E00F2EF7E451
S1130510EF2EF1E0FF2EF02D8E014E815F81688574
S113052079858A819B81AC81BD81481759076A0707
S11305307B0758F0EA85FB85888199810995998321
S113054088831E821F8218861986F8018681978106
S1130550A085B185C296A11DB11D86839783A0870E
S1130560B1872C96CE15DF05B9F681E08093210181
S1130570DF91CF911F910F91FF90EF9008958BE041
S1130580809381008DE790E09093890080938800A8
S113059082E080936F001092850010928400809115
S11305A0000190910101A0910201B0910301809397
S11305B01D0190931E01A0931F01B09320018FB7DA
S11305C080688FBF08958FEF84B915B881B912B8C8
S11305D08AB91BB880EF87B98FE088B9E3E2F1E00C
S11305E01182108284E690E0A0E0B0E082839383DD
S11305F0A483B583168217821086118627E032E021
S1130600338722871586148686879787A08BB18BBC
S1130610128A138A148A158A20E831E0378B268BD4
S1130620118E108E828F938FA48FB58F168E178E96
S113063010A211A28BE592E093A382A382E390E03F
S1130640A0E0B0E08093000190930101A093020127
S1130650B093030180931D0190931E01A0931F0189
S1130660B09320018CDFC2DD6AE171E081E0D6DD68
S113067081E0B4DD80E4C9DD80E0B0DDFFCF1F920E
S11306800F920FB60F9211240BB60F922F933F9334
S11306904F935F936F937F938F939F93AF93BF9386
S11306A0EF93FF9380911D0190911E01A0911F0172
S11306B0B09120010197A109B10980931D01909384
S11306C01E01A0931F01B0932001892B8A2B8B2B31
S11306D089F414DF8091000190910101A09102013D
S11306E0B091030180931D0190931E01A0931F01FB
S11306F0B0932001FF91EF91BF91AF919F918F91A2
S11307007F916F915F914F913F912F910F900BBE0D
S11107100F900FBE0F901F901895F894FFCF16
S113071E010000003C5041555345443E3C47414D79
S10F072E454F5645523E181001012000B2
S9030000FC
