:1000000045C0000060C000005EC000005CC0000091
:100010005AC0000058C0000056C0000054C0000084
:1000200052C0000050C000004EC000004CC0000094
:100030004AC000006DC0000046C0000044C000007F
:1000400042C0000040C000003EC000003CC00000B4
:100050003AC0000038C0000036C0000034C00000C4
:1000600032C0000030C000002EC000002CC00000D4
:100070002AC0000028C0000026C0000024C00000E4
:1000800022C0000020C000001EC0000011241FBEBE
:10009000CFEFD0E4DEBFCDBF11E0A0E0B1E0EEE0F5
:1000A000F4E000E00BBF02C007900D92A430B1074E
:1000B000D9F721E0A4E0B1E001C01D92A131B2075F
:1000C000E1F779D1A2C19CCF8BE0809381008DE7CD
:1000D00090E0909389008093880082E080936F0085
:1000E000109285001092840080910001909101018E
:1000F000A0910201B09103018093090190930A013C
:10010000A0930B01B0930C018FB780688FBF089547
:100110001F920F920FB60F9211248F939F93AF935C
:10012000BF938091090190910A01A0910B01B091B8
:100130000C010197A109B1098093090190930A016B
:10014000A0930B01B0930C01892B8A2B8B2B99F474
:1001500081E080930D018091000190910101A091B7
:100160000201B09103018093090190930A01A093C9
:100170000B01B0930C01BF91AF919F918F910F90A4
:100180000FBE0F901F90189580B180B1809583703D
:1001900090910E01913051F028F09230A9F09330F7
:1001A00039F132C081E080930E0139C0109207010D
:1001B000813031F482E080930E011092050127C056
:1001C00081E080930E012BC0813071F48091050194
:1001D0008F3020F48F5F8093050119C083E08093F6
:1001E0000E011092050113C081E080930E0117C02B
:1001F000813031F4809105018F5F8093050107C044
:1002000081E080930E010BC010920E010895809141
:100210000E01823039F08330C9F0813001F510923F
:100220000701089510920701909105018DEC989FA8
:10023000812D112486958695282F220F220F820F5B
:1002400098130DC081E08093070108951092070173
:100250008091050180FD03C081E08093070108952E
:1002600080B180B18095877090911001913059F0E4
:1002700028F0923091F0933009F128C010920601D5
:10028000823039F12CC010920601823009F055C03D
:10029000809310011092040147C0823009F04DC0D4
:1002A000809104018F3020F48F5F809304013CC063
:1002B00083E0809310011092040136C08230E9F58A
:1002C000809104018F5F809304012EC01092100171
:1002D000089582E08093100110920401089581E056
:1002E00080931001089510920601909104018DEC05
:1002F000989F812D112486958695282F220F220FF5
:10030000820F98131DC081E080930601089510921A
:1003100006018091040180FD13C081E080930601F5
:10032000089510920601D5CF809110018230D9F244
:10033000833069F3813021F4F4CF10920601CFCFDE
:10034000089580B18095877090910F01992319F0DD
:10035000913039F028C01092080191E090930F017C
:1003600022C090910701913089F49091060191305B
:1003700019F41092080117C0911115C0909108014D
:10038000993088F49F5F909308010DC091110BC0C4
:1003900090910601913039F490910801992319F058
:1003A000915090930801833011F4109208018091CC
:1003B000080185B908958FEF84B915B811B882B9CD
:1003C00088EC90E0A0E0B0E0809300019093010100
:1003D000A0930201B09303018093090190930A0155
:1003E000A0930B01B0930C016FDE10920E011092DE
:1003F000100110920F0180910D018823E1F31092FA
:0E0400000D01C2DE2DDF9DDFF6CFF894FFCF99
:04040E0001000000E9
:00000001FF
