S01B000062636172653030315F6C6162365F70617274322E737265636F
S113000045C0000060C000005EC000005CC000008D
S11300105AC0000058C0000056C0000054C0000080
S113002052C0000050C000004EC000004CC0000090
S11300304AC000006DC0000046C0000044C000007B
S113004042C0000040C000003EC000003CC00000B0
S11300503AC0000038C0000036C0000034C00000C0
S113006032C0000030C000002EC000002CC00000D0
S11300702AC0000028C0000026C0000024C00000E0
S113008022C0000020C000001EC0000011241FBEBA
S1130090CFEFD0E4DEBFCDBF11E0A0E0B1E0E4E8F3
S11300A0F2E000E00BBF02C007900D92A430B1074C
S11300B0D9F721E0A4E0B1E001C01D92AE30B2074F
S11300C0E1F7BAD0DDC09CCF8BE0809381008DE74F
S11300D090E0909389008093880082E080936F0081
S11300E0109285001092840080910001909101018A
S11300F0A0910201B0910301809304019093050142
S1130100A0930601B09307018FB780688FBF08954D
S11301101F920F920FB60F9211248F939F93AF9358
S1130120BF938091040190910501A0910601B091C3
S113013007010197A109B109809304019093050176
S1130140A0930601B0930701892B8A2B8B2B99F47A
S113015081E0809308018091000190910101A091B8
S11301600201B09103018093040190930501A093CF
S11301700601B0930701BF91AF919F918F910F90AA
S11301800FBE0F901F90189580910B01811102C032
S113019080E101C080E080930B01089580B18095D7
S11301A083708093090190910A01913061F018F0F5
S11301B0923019F127C010920C0181E080930D0157
S11301C080930A0123C0823059F480910D01823357
S11301D0E8F48F5F80930D0182E080930A0123C0CD
S11301E08130A1F480910D01823080F081508093A0
S11301F00D0182E080930A0116C0811101C091E0D3
S113020090930A0180910A01813069F480910C0174
S113021091E0980F90930C0190910D01981718F4A8
S113022010920C01B1DF9091090180910B01892B8F
S113023080930B0185B908958FEF84B915B811B86F
S113024082B981E090E0A0E0B0E080930001909357
S11302500101A0930201B0930301809304019093E0
S11302600501A0930601B09307012EDF10920A0145
S1130270809108018823E1F3109208018FDFF8CF01
S1070280F894FFCF1C
S10702840100000071
S9030000FC
