S01B000062636172653030315F6C6162355F70617274342E737265636E
S11300004FC000006AC0000068C0000066C0000065
S113001064C0000062C0000060C000005EC0000058
S11300205CC000005AC0000058C0000056C0000068
S113003054C00000D1C0000050C000004EC00000F9
S11300404CC000004AC0000048C0000046C0000088
S113005044C0000042C0000040C000003EC0000098
S11300603CC000003AC0000038C0000036C00000A8
S113007034C0000032C0000030C000002EC00000B8
S11300802CC000002AC0000028C0000050015F01FD
S1130090650180018601BA01BA019001A501C00180
S11300A011241FBECFEFD0E4DEBFCDBF11E0A0E02E
S11300B0B1E0E8E4F4E000E00BBF02C007900D9269
S11300C0A232B107D9F721E0A2E2B1E001C01D924A
S11300D0AC32B207E1F782D1B5C192CF1816190636
S11300E05CF00895000021503109E1F74F5F5F4F44
S11300F04817590729F4089540E050E077E063E099
S1130100272F362FEFCF5E9888B95F9A00005F984B
S113011082E090E0E3CF089581E0F5CF0895813146
S113012018F48158F0CF08958155EDCF089584E6F1
S113013090E0D4DF88E3E7DF86E0E5DF8FE0E3DF0C
S113014081E0E1DF8AE090E0C9CF08955E9A88B942
S11301505F9A00005F9881E090E0C0CF08950F930C
S11301601F93CF93DF93182FEB01D6DF8881882369
S113017051F001E0010F812FD2DF8991E7DF102FC9
S113018088818111F6CFDF91CF911F910F9108954E
S11301908BE0809381008DE790E0909389008093B9
S11301A0880082E080936F00109285001092840092
S11301B08091000190910101A0910201B09103018D
S11301C08093220190932301A0932401B0932501ED
S11301D08FB780688FBF08951F920F920FB60F924A
S11301E011248F939F93AF93BF9380912201909199
S11301F02301A0912401B09125010197A109B1091E
S11302008093220190932301A0932401B0932501AC
S1130210892B8A2B8B2B99F481E080932601809182
S1130220000190910101A0910201B091030180931A
S1130230220190932301A0932401B0932501BF913F
S1130240AF919F918F910F900FBE0F901F901895B3
S113025080912701813021F482E08093270109C035
S1130260823021F484E08093270103C081E08093ED
S113027027018091270185B9089580B18095982F31
S1130280917080B18095827020912801422F50E0B6
S11302904A30510508F079C0FA01EA5BFF4FC9C042
S11302A064E071E081E05BDF88E039DF85E34EDF05
S11302B085E080932B0181E0809328016EC0811139
S11302C001C022E02093280160C020912A012F5F01
S11302D020932A01882339F085E080932B0181E063
S11302E0809328015AC0992321F083E08093280148
S11302F068C0243108F449C0ABDF10922A0145C01C
S1130300911101C024E0209328013FC0809127016E
S1130310823011F088E001C087E08093280135C065
S113032080912B018F5F80932B0188E0F8DE809110
S11303302B01805D0BDF80912B01893010F085E06B
S113034001C081E08093280120C080912B0181505D
S113035080932B0188E0E3DE80912B01805DF6DE43
S113036080912B01811102C086E001C081E080935D
S113037028010BC099E090932801811103C021C08A
S11303808823F9F0109228011CC08091280185303F
S113039079F0863091F08130A1F488E0C0DE80915C
S11303A02B01805DD3DE10922A011092290109C02D
S11303B06CE071E081E0D3DE04C067E171E081E0CC
S11303C0CEDE89B1811107C081E09091280191119D
S11303D003C080E001C081E08BB908958FEF84B938
S11303E015B887B918B88AB91BB811B882B982E3AD
S11303F090E0A0E0B0E08093000190930101A0930D
S11304000201B09303018093220190932301A093EE
S11304102401B0932501BCDE8ADE109227011092DC
S11304202801809126018823E1F31092260125DF1B
S1130430F8CFEE0FFF1F0024001C0BBE0790F691AF
S10B0440E02D0994F894FFCFAC
S11304480100000053636F72653A20002020574969
S11304584E4E455221210020204C4F5345522E2EFA
S10504682E0060
S9030000FC
