:100000008AC0000090C000008EC000008CC00000BC
:100010008AC0000088C0000086C0000084C00000C4
:1000200082C0000080C000007EC000007CC00000D4
:100030007AC0000078C0000076C0000074C00000E4
:1000400072C0000070C000006EC000006CC00000F4
:100050006AC0000068C0000066C0000064C0000004
:1000600062C0000060C000005EC000005CC0000014
:100070005AC0000058C0000056C0000054C0000024
:1000800052C0000050C000004EC000001B014101E2
:100090004101410141014101410141014101410150
:1000A0004101410141014101410141014101410140
:1000B0004101410141014101410141014101410130
:1000C0004101410141014101410141014101410120
:1000D00041013F0141014101410141014101410112
:1000E0003B01410141014101410141013D011D012E
:1000F00020012301260129012B012D012F013101AE
:1001000041014101410141014101410141013301ED
:1001100035013701390111241FBECFEFD0E4DEBF16
:10012000CDBF53D0B9C06CCF8FEE88B90000309BE3
:100130002CC0319B2CC0329B2CC0339B2CC08FED2C
:1001400088B90000309B29C0319B29C0329B29C04F
:10015000339B29C08FEB88B90000309B26C0319BB0
:1001600026C0329B26C0339B26C08FE788B900008B
:10017000309B23C0319B23C0329B23C0339B23C0C1
:100180008FEB88B9000080E0089581E3089584E34F
:10019000089587E308958AE2089582E3089585E348
:1001A000089588E3089580E3089583E3089586E33E
:1001B000089589E308958AE2089581E4089582E428
:1001C000089583E4089584E408958FEF84B915B801
:1001D00080EF87B98FE088B90F2EF4EE7F2EF02DD7
:1001E0000F2EF0EF8F2EF02D99249A940F2EF1EF11
:1001F000AF2EF02D0F2EF2EFBF2EF02D0F2EF3EFBE
:10020000CF2EF02D0F2EF4EFDF2EF02D0F2EF5EF69
:10021000EF2EF02D0F2EF6EFFF2EF02D07EF18EF3B
:10022000D9EFCAEF81DF90E08534910550F5FC01EC
:10023000EA5BFF4F28C015B8F5CF8EEF85B9F2CF36
:100240008DEF85B9EFCF8CEF85B9ECCF8BEF85B90A
:10025000E9CFC5B9E7CFD5B9E5CF15B9E3CF05B932
:10026000E1CFF5B8DFCFE5B8DDCFD5B8DBCFC5B886
:10027000D9CFB5B8D7CFA5B8D5CF95B8D3CF85B896
:10028000D1CF75B8CFCFEE0FFF1F0024001C0BBEDF
:0C0290000790F691E02D0994F894FFCF40
:00000001FF
