:100000000C942A000C9434000C9434000C943400AA
:100010000C9434000C9434000C9434000C94340090
:100020000C9434000C9434000C9434000C94340080
:100030000C9434000C9434000C9434000C94340070
:100040000C9434000C9434000C9434000C94340060
:100050000C94340011241FBECFE5D8E0DEBFCDBF25
:100060000E9436000C947B000C9400001ABA17BA58
:1000700014BA8FEF81BB1BBA18BA15BA12BA71E065
:1000800060E039B386B323B390E0830F911D820FF4
:10009000911D272F8D38910508F4262F49B333B3CE
:1000A00050E0431B51094135510544F443B339B382
:1000B00050E0431B5109413551053CF0322F32606D
:1000C0008830910528F4262F0AC0322F3D7FF8CFC3
:1000D000262F969587952F5F88309105D0F7220FB0
:1000E000220F932F937E292B2F718295880F807E6C
:0A00F000822B82BBC6CFF894FFCF2D
:00000001FF
