:1000000045C0000060C000005EC000005CC0000091
:100010005AC0000058C0000056C0000054C0000084
:1000200052C0000050C000004EC000004CC0000094
:100030004AC0000030C1000046C0000044C00000BB
:1000400042C0000040C000003EC000003CC00000B4
:100050003AC0000038C0000036C0000034C00000C4
:1000600032C0000030C000002EC000002CC00000D4
:100070002AC0000028C0000026C0000024C00000E4
:1000800022C0000020C000001EC0000011241FBEBE
:10009000CFEFD0E4DEBFCDBF11E0A0E0B1E0EAEBEE
:1000A000F3E000E00BBF02C007900D92A631B1074C
:1000B000D9F721E0A6E1B1E001C01D92AD31B20750
:1000C000E1F74AD178C19CCF181619065CF0089563
:1000D000000021503109E1F74F5F5F4F4817590782
:1000E00029F4089540E050E077E063E0272F362FB1
:1000F000EFCF5E9882B95F9A00005F9882E090E04F
:10010000E3CF089581E0F5CF0895813118F4815847
:10011000F0CF08958155EDCF089584E690E0D4DFC7
:1001200088E3E7DF86E0E5DF8FE0E3DF81E0E1DF22
:100130008AE090E0C9CF08955E9A82B95F9A000084
:100140005F9881E090E0C0CF08950F931F93CF9305
:10015000DF93182FEB01D6DF8881882351F001E06F
:10016000010F812FD2DF8991E7DF102F8881811164
:10017000F6CFDF91CF911F910F9108958FEE88B93F
:100180000000309B44C086B1809581FD42C086B19D
:10019000809582FD40C086B1809583FD3EC08FED85
:1001A00088B90000309B3BC086B1809581FD39C085
:1001B00086B1809582FD37C086B1809583FD35C0BC
:1001C0008FEB88B90000309B32C086B1809581FDED
:1001D00030C086B1809582FD2EC086B1809583FDAA
:1001E0002CC08FE788B9000096B19095892F817057
:1001F00090FD25C096B1909591FD23C096B1909544
:1002000092FD21C096B1909593FD1FC0089581E3A2
:10021000089584E3089587E308958AE2089582E3C8
:10022000089585E3089588E3089580E3089583E3BE
:10023000089586E3089589E3089583E2089581E4AB
:10024000089582E4089583E4089584E408958BE09A
:10025000809381008DE790E09093890080938800DF
:1002600082E080936F00109285001092840080914C
:10027000000190910101A0910201B09103018093CE
:10028000170190931801A0931901B0931A018FB729
:1002900080688FBF08951F920F920FB60F9211249E
:1002A0008F939F93AF93BF93809117019091180103
:1002B000A0911901B0911A010197A109B109809388
:1002C000170190931801A0931901B0931A01892B7B
:1002D0008A2B8B2B99F481E080931B018091000184
:1002E00090910101A0910201B09103018093170147
:1002F00090931801A0931901B0931A01BF91AF9187
:100300009F918F910F900FBE0F901F901895CF93D4
:1003100080911C01882319F08130C1F006C080E073
:10032000F4DE81E080931C0111C010921C0112C008
:1003300080911601803109F480E08F5F809316016F
:10034000E4DE8C2FF9DE80E0E0DE04C017DFC82F8A
:100350008111EECFCF9108958FEF84B915B881B98F
:1003600012B88AB91BB880EF87B98FE088B988ECDA
:1003700090E0A0E0B0E08093000190930101A09391
:100380000201B09303018093170190931801A09389
:100390001901B0931A015BDFC0DE64E071E081E017
:1003A000D4DE10921C0180911B018823E1F310928E
:0A03B0001B01ADDFF8CFF894FFCF7A
:1003BA0001000000436F6E67726174756C61746945
:0603CA006F6E73210000BC
:00000001FF
