S01B000062636172653030315F6C6162325F70617274312E7372656374
S11300000C942A000C9434000C9434000C943400A6
S11300100C9434000C9434000C9434000C9434008C
S11300200C9434000C9434000C9434000C9434007C
S11300300C9434000C9434000C9434000C9434006C
S11300400C9434000C9434000C9434000C9434005C
S11300500C94340011241FBECFE5D8E0DEBFCDBF21
S11300600E9436000C945F000C9400001ABA17BA70
S11300708FEF84BB1BBA1BBA15BAF0E0E0E070E066
S11300802F2F3E2F672F89B3A901552790E0042E07
S113009002C0959587950A94E2F780FD6F5F86B359
S11300A090E002C0959587954A95E2F780FD6F5FD1
S11300B02F5F3F4F2830310531F765BBE1CFF8940E
S10500C0FFCF6C
S9030000FC
