S0240000626576616E3030365F62636172653030315F6C6162395F70617274322E7372656362
S113000045C0000060C000005EC000005CC000008D
S11300105AC0000058C0000056C0000054C0000080
S113002052C0000050C000004EC000004CC0000090
S11300304AC000006DC0000046C0000044C000007B
S113004042C0000040C000003EC000003CC00000B0
S11300503AC0000038C0000036C0000034C00000C0
S113006032C0000030C000002EC000002CC00000D0
S11300702AC0000028C0000026C0000024C00000E0
S113008022C0000020C000001EC0000011241FBEBA
S1130090CFEFD0E4DEBFCDBF11E0A0E0B1E0EAE2F3
S11300A0F3E000E00BBF02C007900D92A430B1074B
S11300B0D9F721E0A4E0B1E001C01D92A031B2075C
S11300C0E1F708D130C19CCF8BE0809381008DE7AC
S11300D090E0909389008093880082E080936F0081
S11300E0109285001092840080910001909101018A
S11300F0A0910201B091030180930801909309013A
S1130100A0930A01B0930B018FB780688FBF089545
S11301101F920F920FB60F9211248F939F93AF9358
S1130120BF938091080190910901A0910A01B091B7
S11301300B010197A109B10980930801909309016A
S1130140A0930A01B0930B01892B8A2B8B2B99F472
S113015081E080930C018091000190910101A091B4
S11301600201B09103018093080190930901A093C7
S11301700A01B0930B01BF91AF919F918F910F90A2
S11301800FBE0F901F90189580910D01813061F082
S113019028F08230D1F0833049F139C01092070140
S11301A081E080930D0135C080910501833038F4DE
S11301B08F5F8093050181E080930D012AC0109226
S11301C0050182E080930D0124C0809105018330F4
S11301D038F48F5F8093050182E080930D0119C08C
S11301E01092050183E080930D0113C080910501F5
S11301F0833038F48F5F8093050183E080930D0191
S113020008C01092050181E080930D0102C0109294
S11302100D0180910F01882319F0813041F01DC038
S113022088E08093060181E080930F0118C08091DB
S113023004018A3038F48F5F8093040181E0809355
S11302400F010DC0109204018091060180958093E6
S1130250060181E080930F0102C010920F0180918A
S11302600E01882319F0813059F106C08FEF85B94A
S113027081E080930E0124C010920E0180910D0143
S1130280823041F0833051F0813019F581E0809360
S1130290070107C082E08093070103C084E08093D4
S11302A0070180910E018130A1F480910601982FFD
S11302B09870809107018770892B809585B908957E
S11302C080910D01823031F3833041F3813069F73D
S11302D0DDCF08958FEF84B915B811B882B984E6DB
S11302E090E0A0E0B0E08093000190930101A0931E
S11302F00201B09303018093080190930901A09334
S11303000A01B0930B01E0DE10920D0110920F016F
S113031010920E0113B880910C018823E1F310921E
S10D03200C0132DFF8CFF894FFCF90
S107032A01000000CA
S9030000FC
