S01B000062636172653030315F6C6162335F70617274352E737265636F
S11300000C9431000C944E000C944E000C944E0051
S11300100C944E000C944E000C944E000C944E0024
S11300200C944E000C944E000C944E000C944E0014
S11300300C944E000C944E000C944E000C944E0004
S11300400C944E000C944E000C944E000C944E00F4
S11300500C944E005D006300670076008B009400F2
S1130060C30011241FBECFE5D8E0DEBFCDBF10E032
S1130070A0E6B0E0E2EEF1E002C005900D92A436F5
S1130080B107D9F720E0A4E6B0E001C01D92A7367D
S1130090B207E1F70E94D7000C94EF000C94000023
S11300A020916500822F90E08730910508F06FC0A1
S11300B0FC01E65DFF4F0C94E9001092640081E0BE
S11300C0809365006BC082E0809365000895C899B1
S11300D005C0C99905C0CA9905C005C023E003C07D
S11300E023E001C023E02093650051C099B3E3B33A
S11300F0F0E0E05AFF4F8081981309C084E08093B8
S11301006500809166008F5F8093660040C081E047
S11301108093650043C0C89904C0C99902C0CA9BB2
S113012025E02093650033C083B3843048F4C89934
S113013007C0C99905C0CA9903C082E080936500CD
S113014083B38430B0F0C89914C0C99912C0CA9955
S113015010C0B09B06C0809164008E7F80936400C1
S113016005C08091640081608093640081E0809385
S11301706500C89904C0C99902C0CA9B08C085E03B
S113018080936500089581E08093650007C08091A5
S11301906500813019F0863021F0089510926600D0
S11301A0089581E0809364008093650008951ABAED
S11301B08FEF87BB84BB1BBA18BA15BA10926500BF
S11301C00E9450008091640088BB8091660085BBCA
S11301D0F7CFEE0FFF1F0590F491E02D0994F894EA
S10501E0FFCF4B
S10701E2040102010D
S9030000FC
