:1000000045C0000060C000005EC000005CC0000091
:100010005AC0000058C0000056C0000054C0000084
:1000200052C0000050C000004EC000004CC0000094
:100030004AC000006DC0000046C0000044C000007F
:1000400042C0000040C000003EC000003CC00000B4
:100050003AC0000038C0000036C0000034C00000C4
:1000600032C0000030C000002EC000002CC00000D4
:100070002AC0000028C0000026C0000024C00000E4
:1000800022C0000020C000001EC0000011241FBEBE
:10009000CFEFD0E4DEBFCDBF11E0A0E0B1E0EAE9F0
:1000A000F2E000E00BBF02C007900D92A430B10750
:1000B000D9F721E0A4E0B1E001C01D92AC30B20755
:1000C000E1F7C3D0E8C09CCF8BE0809381008DE73F
:1000D00090E0909389008093880082E080936F0085
:1000E000109285001092840080910001909101018E
:1000F000A0910201B0910301809304019093050146
:10010000A0930601B09307018FB780688FBF089551
:100110001F920F920FB60F9211248F939F93AF935C
:10012000BF938091040190910501A0910601B091C7
:1001300007010197A109B10980930401909305017A
:10014000A0930601B0930701892B8A2B8B2B99F47E
:1001500081E0809308018091000190910101A091BC
:100160000201B09103018093040190930501A093D3
:100170000601B0930701BF91AF919F918F910F90AE
:100180000FBE0F901F90189580B18095817090914F
:100190000A019230C9F028F4992351F0913071F09E
:1001A0004DC0933009F440C0943009F443C046C0B8
:1001B00010920B0181E080930A0144C0811101C0BB
:1001C00092E090930A013AC081112AC080910B01FC
:1001D0008531F8F080910901811104C081E080939C
:1001E000090111C0813021F482E0809309010BC024
:1001F000823021F484E08093090105C0843019F431
:1002000081E08093090110920B018091090185B969
:1002100015C08F5F80930B0182E080930A010895DF
:1002200083E080930A010895811101C094E09093C6
:100230000A0104C0811191E090930A0180910A01A2
:10024000813011F41092090108958FEF84B915B827
:1002500011B882B982E390E0A0E0B0E080930001A1
:1002600090930101A0930201B093030180930401D4
:1002700090930501A0930601B093070125DF10922A
:10028000090110920A01809108018823E1F310927C
:0A02900008017ADFF8CFF894FFCFE1
:04029A00010000005F
:00000001FF
