S01B000062636172653030315F6C6162335F70617274312E7372656373
S11300000C942A000C943C000C943C000C943C008E
S11300100C943C000C943C000C943C000C943C006C
S11300200C943C000C943C000C943C000C943C005C
S11300300C943C000C943C000C943C000C943C004C
S11300400C943C000C943C000C943C000C943C003C
S11300500C943C0011241FBECFE5D8E0DEBFCDBF19
S113006020E0A0E6B0E001C01D92A236B207E1F79D
S11300700E9488000C9498000C9400008091610008
S11300808230B9F028F4882341F0813051F029C03E
S11300908330B9F08430E9F024C081E080936100BA
S11300A00895C89B04C082E08093610023C089B393
S11300B00895C89904C083E080936100089589B3CA
S11300C019C0C89B04C084E0809361001AC089B33E
S11300D00895C89916C0C89914C081E0809361003E
S11300E0089510926100809160008D7F81608093FB
S11300F060000895809160008E7F8260809360002C
S11301000895809160008D7F8160809360000895E0
S11301101ABA8FEF87BB1BBA18BA1092610081E03C
S1130120809360000E943E008091600088BBFACFFB
S1070130F894FFCF6D
S9030000FC
