S01B000062636172653030315F6C6162355F70617274332E737265636F
S113000045C0000060C000005EC000005CC000008D
S11300105AC0000058C0000056C0000054C0000080
S113002052C0000050C000004EC000004CC0000090
S11300304AC00000ABC0000046C0000044C000003D
S113004042C0000040C000003EC000003CC00000B0
S11300503AC0000038C0000036C0000034C00000C0
S113006032C0000030C000002EC000002CC00000D0
S11300702AC0000028C0000026C0000024C00000E0
S113008022C0000020C000001EC0000011241FBEBA
S1130090CFEFD0E4DEBFCDBF11E0A0E0B1E0ECEDE6
S11300A0F2E000E00BBF02C007900D92A430B1074C
S11300B0D9F721E0A4E0B1E001C01D92AC30B20751
S11300C0E1F7E3D009C19CCF181619065CF0089536
S11300D0000021503109E1F74F5F5F4F481759077E
S11300E029F4089540E050E077E063E0272F362FAD
S11300F0EFCF5E9888B95F9A00005F9882E090E045
S1130100E3CF0895813118F48158F3CF08958155D0
S1130110F0CF089584E690E0D7DF88E3EADF86E055
S1130120E8DF8FE0E6DF81E0E4DF8AE090E0CCCF37
S113013008955E9A88B95F9A00005F9881E090E024
S1130140C3CF08958BE0809381008DE790E0909376
S113015089008093880082E080936F00109285006C
S1130160109284008091000190910101A0910201FC
S1130170B09103018093040190930501A0930601BB
S1130180B09307018FB780688FBF08951F920F92B5
S11301900FB60F9211248F939F93AF93BF938091C7
S11301A0040190910501A0910601B0910701019706
S11301B0A109B1098093040190930501A09306015C
S11301C0B0930701892B8A2B8B2B99F481E08093C0
S11301D008018091000190910101A0910201B09168
S11301E003018093040190930501A0930601B09349
S11301F00701BF91AF919F918F910F900FBE0F9008
S11302001F90189520B190B180910A01882319F0AC
S1130210813039F023C010920B0181E080930A01F0
S11302201DC09095927020FD0DC0992319F0109275
S11302300B0111C080910B01893068F48F5F8093AA
S11302400B0109C0992339F080910B01882319F01F
S1130250815080930B0181E080930A0181E052DF99
S113026080910B01805D65DF83B1882319F083B130
S1130270823021F481E08093090103C082E08093FD
S113028009018091090185B908958FEF84B915B8E2
S113029087B918B88AB91BB811B882B988EE93E047
S11302A0A0E0B0E08093000190930101A0930201CB
S11302B0B09303018093040190930501A093060178
S11302C0B09307013FDF26DF809108018823E1F323
S10F02D01092080197DFF8CFF894FFCFDC
S10702DC0100000019
S9030000FC
