S01B000062636172653030315F6C6162335F70617274332E7372656371
S11300000C9431000C9443000C9443000C94430072
S11300100C9443000C9443000C9443000C94430050
S11300200C9443000C9443000C9443000C94430040
S11300300C9443000C9443000C9443000C94430030
S11300400C9443000C9443000C9443000C94430020
S11300500C9443005200560071009700BB00D60078
S1130060FB0011241FBECFE5D8E0DEBFCDBF20E0EA
S1130070A0E6B0E001C01D92A336B207E1F70E94EA
S113008046010C9460010C940000E09161008E2FF5
S113009090E08730910508F0BCC0FC01E65DFF4F9D
S11300A00C945A0181E080936100D4C0C8990DC0BA
S11300B0C9990BC0CA9909C089B390E0880F892FE8
S11300C0881F990B9195892B21F082E08093610020
S11300D0C8C0C899BFC0C999BDC0CA99BBC089B3BB
S11300E0B9C0C8990DC0C9990BC0CA9B09C089B3CE
S11300F090E0880F892F881F990B9195892B19F00F
S1130100109261009CC0C899ACC0C999AAC0CA9B8E
S1130110A8C089B390E0880F892F881F990B919507
S1130120892B09F09EC083E080936100A1C0C89927
S11301309FC0C9999DC0CA999BC089B390E0880F9C
S1130140892F881F990B9195892B09F091C0C89923
S11301508FC0C9998DC0CA998BC089B390E0880FAC
S1130160892F881F990B9195892B09F081C084E010
S11301708093610084C0C8990DC0C9990BC0CA9905
S113018009C089B390E0880F892F881F990B919536
S1130190892B21F085E0809361003EC0C8996FC02F
S11301A0C9996DC0CA996BC089B369C0C89911C097
S11301B0C99B0FC0CA990DC089B390E0880F892FDD
S11301C0881F990B9195892B21F486E08093610017
S11301D02AC0C8990DC0C99B0BC0CA9909C089B36C
S11301E090E0880F892F881F990B9195892BA1F096
S11301F01092610024C089B390E0880F892F881F72
S1130200990B9195892B19F01092610018C089B34C
S11302100AC01092610013C0809162008D7F8560D6
S113022080936200089580916000816080936000F3
S1130230809162008E7F8660809362000895809131
S113024060008E7F8093600080916200837E809343
S11302506200089580916200897F816080936200CA
S11302600895809162008A7F82608093620008957D
S1130270809162008B7F83608093620008958091F7
S113028062008C7F84608093620008951ABA8FEFB5
S113029087BB84BB1BBA18BA15BA8093610010924D
S11302A060000E9445008091600088BB80916200DC
S11302B085BBF7CFEE0FFF1F0590F491E02D099455
S10702C0F894FFCFDC
S9030000FC
